:020000040800F2
:10000000C04D002001010008011701089D60000893
:1000100003170108071701080B170108000000006B
:100020000000000000000000000000000F170108A1
:100030001117010800000000131701081517010827
:100040001B0100081B0100081B0100081B01000820
:100050001B0100081B0100081B0100081B01000810
:100060001B0100081B0100081B0100081B01000800
:100070001B0100081B010008291701081B010008CB
:100080001B0100081B0100081B0100084D17010897
:10009000451701081B0100081B0100081B0100088F
:1000A0001B0100081B0100081B0100081B010008C0
:1000B0001B0100081B0100081B0100081B010008B0
:1000C0001B0100081B0100081B0100081B010008A0
:1000D0001B0100081D170108371701081B01000844
:1000E0001B0100081B0100081B010008DFF80CD0F1
:1000F00011F086FE0048004753160108C04D00204D
:100100000648804706480047FEE7FEE7FEE7FEE7B1
:10011000FEE7FEE7FEE7FEE7FEE7FEE70302000874
:10012000ED0000080CB50020019000906C480068BC
:1001300040F480306A49086000BF6948006800F4F4
:10014000003000900198401C0190009818B9019867
:10015000B0F5A06FF1D16248006800F4003010B132
:100160000120009001E0002000900098012843D178
:100170005C48006840F010005A4908600846006872
:1001800020F0030008600846006840F002000860A4
:1001900053484068524948600846406848600846ED
:1001A000406840F4806048600846406820F47C1055
:1001B00048600846406840F4E81048600846006817
:1001C00040F08070086000BF4548006800F0007093
:1001D0000028F9D04248406820F0030040494860B8
:1001E0000846406840F00200486000BF3C48406854
:1001F00000F00C000828F9D10CBD10B5FFF792FFF4
:1002000010BD10B53648006840F001003449086060
:10021000084640683449084031494860084600684B
:10022000324908402E4908600846006820F48020C2
:1002300008600846406820F4FE0048604FF41F0044
:100240008860FFF7DAFF4FF000602949086010BDB1
:1002500010B5002100200022214B5B6803F00C0147
:1002600021B1042906D0082928D107E0214B224CCE
:10027000236027E01F4B204C236023E0184B5B6872
:1002800003F47010164B5B6803F48032022303EB17
:10029000904022B9194B4343174C23600DE0104B9B
:1002A0005B6803F4003323B1144B4343124C2360C7
:1002B00003E0104B4343104C236003E00D4B0E4C06
:1002C000236000BF00BF064B5B68C3F303130C4CF5
:1002D000E15C094B1B68CB40074C236010BD00005C
:1002E00000100240002002400000FFF8FFFFF6FE71
:1002F00008ED00E000127A000000002000093D0037
:100300000400002031490143314A1160704770B543
:10031000002100230F22C47804B32D4C246804F478
:10032000E064C4F5E064210AC1F10403CA404478E2
:1003300004FA03F18478144021430901254C06781E
:10034000A155047804F01F050124AC4005786D1117
:10035000AD0005F1E025C5F8004109E0047804F09E
:100360001F050124AC401C4D0678761145F8264047
:1003700070BD1A4A0A400243154B1B1F1A60704792
:1003800039B1134A121D12680243114B1B1D1A602A
:1003900006E00F4A121D126882430D4B1B1D1A60A6
:1003A0007047042808D14FF0E021096941F00401A9
:1003B0004FF0E022116107E04FF0E021096921F0E0
:1003C00004014FF0E0221161704700000000FA05BF
:1003D0000CED00E000E400E080E100E080FFFF1FA2
:1003E00001684FF6FE72114001600021016041601A
:1003F0008160C1608D49884208D18C4908394968BB
:1004000041F00F01894A083A51608AE08749143166
:10041000884208D185490839496841F0F001834A8A
:10042000083A51607DE081492831884208D17F49EE
:100430000839496841F470617C4A083A516070E0BB
:100440007A493C31884208D178490839496841F4F1
:100450007041764A083A516063E0744950318842ED
:1004600008D172490839496841F470216F4A083A45
:10047000516056E06D496431884208D16B490839B2
:10048000496841F47001694A083A516049E0674996
:100490007831884208D165490839496841F070616E
:1004A000624A083A51603CE06149884206D1011F26
:1004B000096841F00F01021F116032E05C491431FC
:1004C000884208D15A49091F096841F0F001584A89
:1004D000121F116025E056492831884208D154493D
:1004E000091F096841F47061514A121F116018E038
:1004F0004F493C31884208D14D49091F096841F4F0
:1005000070414B4A121F11600BE04949503188423B
:1005100007D14749091F096841F47021444A121F55
:100520001160704710B50022026847F6F0739A43D5
:100530000C6A8B6823430C6923434C6923438C6901
:100540002343CC6923434C6A23438C6A23431A43D5
:100550000260CB6843600B6883604B68C36010BD6A
:100560000021016041608160C16001614161816180
:10057000C161016241628162704721B1026842F04B
:100580000102026004E002684FF6FE731A40026046
:1005900070471AB103680B43036002E003688B43A2
:1005A00003607047416070470146486880B27047F9
:1005B00001460020002201F080531BB11C4B083B78
:1005C0001A6802E0194B083B1A6802EA01030BB1F2
:1005D000012000E00020704700F0805119B114495B
:1005E000091F086002E01149083948607047014658
:1005F0000020002201F080531BB10D4B083B1A680C
:1006000002E00A4B083B1A6802EA01030BB1012021
:1006100000E00020704700F0805119B10449091F23
:10062000086002E00149083948607047080002404C
:100630000804024010B50446CC48844208D1012188
:10064000042000F04DFB0021042000F049FB46E0AF
:10065000C748844208D10121082000F041FB002155
:10066000082000F03DFB3AE0C248844208D1012155
:10067000102000F035FB0021102000F031FB2EE0AF
:10068000BD48844208D10121202000F029FB00212F
:10069000202000F025FB22E0B848844208D1012147
:1006A000402000F01DFB0021402000F019FB16E067
:1006B000B348844208D10121802000F011FB0021C1
:1006C000802000F00DFB0AE0AE48844207D10121F2
:1006D000801500F005FB0021A01500F001FB10BD06
:1006E00010B50121084600F0FBFA0021012000F0BE
:1006F000F7FA10BD2DE9F041024600250026002042
:1007000000230024002791F803C00CF00F0591F896
:1007100003C00CF0100CBCF1000F03D091F802C024
:100720004CEA050591F800C0BCF1000F31D0146807
:1007300000202BE04FF0010C0CFA00F3B1F800C0E0
:100740000CEA03069E4220D183004FF00F0C0CFAF6
:1007500003F7BC4305FA03FC4CEA040491F803C018
:10076000BCF1280F06D14FF0010C0CFA00FCC2F8C6
:1007700014C00AE091F803C0BCF1480F05D14FF056
:10078000010C0CFA00FCC2F810C0401C0828D1D3A0
:100790001460B1F800C0BCF1FF0F34DD54680020D4
:1007A0002EE000F1080C4FF0010808FA0CF3B1F844
:1007B00000C00CEA03069E4221D183004FF00F0CCB
:1007C0000CFA03F7BC4305FA03FC4CEA040491F865
:1007D00003C0BCF1280F05D100F1080C08FA0CF891
:1007E000C2F8148091F803C0BCF1480F07D100F1A2
:1007F000080C4FF0010808FA0CF8C2F81080401CF1
:100800000828CED35460BDE8F0814FF6FF71018017
:10081000022181700421C170704702460020936854
:100820000B400BB1012000E00020704701468868B2
:1008300080B2704702460020D3680B400BB1012004
:1008400000E0002070470146C86880B2704701612F
:100850007047416170470AB1016100E04161704732
:10086000C16070474FF480320A43826181618261C6
:1008700082698269704702460020434B18684FF630
:100880008073184040EA021008433F4B18607047DD
:100890003E49C8617047F0B50A4600230024002194
:1008A000002500F00046B6F1004F02D1364EF16946
:1008B00001E0354E7168C0F3034583B200F4401681
:1008C000B6F5401F08D121F070612F4E766826F0F2
:1008D00070662D4F7E6012E000F48016B6F5801F22
:1008E00006D1032606FA05F4A14341F0706106E043
:1008F000460D360103FA06F6B14341F0706122B1AC
:10090000460D360103FA06F6314300F00046B6F113
:10091000004F02D11C4EF16101E01B4E7160F0BD31
:1009200030B500228B071C0F0F2303FA04F2164B7D
:1009300008338C1053F824309343134C08348D1033
:1009400044F8253023468C1053F824308C07240FAC
:1009500000FA04F423430C4C08348D1044F825307D
:1009600030BD0A49DC3108607047000000080140D2
:10097000000C01400010014000140140001801402B
:10098000001C014000200140000001400000204206
:100990000E49086070470D49486070470B498860F0
:1009A00070474AF6AA200949086070474CF6CC40C7
:1009B00006490860704701460020044AD2680A4090
:1009C0000AB1012000E00020704700000030004024
:1009D000DF48006840F00100DD49086008464068D3
:1009E000DC490840DA49486008460068DA490840AE
:1009F000D74908600846006820F48020086008464F
:100A0000406820F4FE0048604FF41F008860704783
:100A1000CF49096821F48031CD4A11601146096837
:100A200021F480211160B0F5803F03D0B0F5802F14
:100A30000ED106E0C649096841F48031C44A11600C
:100A400007E0C349096841F4A021C14A116000E0F0
:100A500000BF00BF704710B50146002200230020F0
:100A60004A11012A02D1BA4C236806E0022A02D1B7
:100A7000B74C236A01E0B64C636A01F01F020124FF
:100A800094401C400CB1012000E0002010BD38B59E
:100A9000002000900024002500BF3120FFF7DBFF7D
:100AA00005460098401C00900098B0F5A06F01D05A
:100AB000002DF2D03120FFF7CEFF08B1012400E075
:100AC0000024204638BD01460020A14A106820F0CD
:100AD000F80040EAC10010607047A0490860704704
:100AE000024600209A4B586820F47C1042EA010329
:100AF0001843974B586070479849086670470146FD
:100B00000020934A506820F003000843506070476B
:100B10008F48406800F00C007047014600208C4A66
:100B2000506820F0F00008435060704701460020F4
:100B3000874A506820F4E0600843506070470146DF
:100B40000020834A506820F4605040EAC1005060A1
:100B5000704729B17E4A527A02437D4B5A7204E0B3
:100B60007B4A527A82437A4B5A7270477B49D8311A
:100B70000860704701460020754A506820F44040E4
:100B80000843506070470021714A20321170704A4A
:100B900082F82010012802D004280AD104E00121A3
:100BA0006B4A2032117005E00521694A203211702C
:100BB00000E000BF00BF70476949086070476449A2
:100BC000096A0143624A1162704765494439086005
:100BD000704730B500210022002400235C4D6D6871
:100BE00005F00C0121B1042905D0082923D105E025
:100BF0005C4D056022E05B4D05601FE0544D6D6863
:100C000005F47012524D6D6805F48034022505EB31
:100C100092421CB9544D554305600BE04C4D6D6834
:100C200005F400351DB1504D5543056002E04D4DB2
:100C30005543056002E04B4D056000BF00BF444DC9
:100C40006D6805F0F0010909484D6B5C0568DD40F1
:100C500045603F4D6D6805F4E061090A434D6B5CEA
:100C60004568DD4085603A4D6D6805F46051C90AFC
:100C70003E4D6B5C4568DD40C560354D6D6805F4E3
:100C80004041890B3A4D6B5CC568B5FBF3F50561D6
:100C900030BD29B12E4A526902432D4B5A6104E0FE
:100CA0002B4A526982432A4B5A61704729B1284A1C
:100CB00092690243264B9A6104E0254A9269824375
:100CC000234B9A61704729B1214AD2690243204BD4
:100CD000DA6104E01E4AD26982431D4BDA61704733
:100CE00029B11B4AD2680243194BDA6004E0184A62
:100CF000D2688243164BDA60704729B1144A1269F0
:100D00000243134B1A6104E0114A12698243104BEB
:100D10001A61704712494039086070470F49C8642A
:100D200070470B49C87170470948406A40F08070AD
:100D300007494862704701460020054A92680A4008
:100D40000AB1012000E00020704701498872704715
:100D5000001002400000FFF8FFFFF6FE00004242D4
:100D60008004424200127A0000093D001400002075
:100D70002400002010B50446BE48844208D1012159
:100D80008014FFF7ADFF0021A014FFF7A9FF16E0C4
:100D9000B948844208D101210014FFF7AEFF0021B9
:100DA0002014FFF7AAFF0AE0B448844207D10121CA
:100DB000C013FFF7A2FF0021E013FFF79EFF10BD55
:100DC00010B50022028802F441520B884C8823435C
:100DD0008C882343CC8823430C8923434C892343A9
:100DE0008C892343CC8923431A430280838B4FF29F
:100DF000FF74234083830B8A038210BD2DE9F04FDB
:100E000085B005460C464FF0000902274FF0000858
:100E10004FF0010B0026B246A88B4FF2400108406C
:100E2000A88302202884B5F81C90A068022801D16C
:100E300000BF38E0A08810B94FF0010B01E04FF07F
:100E4000020B8D48854200D100E000BF6846FFF7E5
:100E5000C0FEDDF800A0E088B0F5007F0AD14FEABF
:100E60001A2000EB80004000A168B0FBF1F0401DAB
:100E700086B20BE04FEA4B10BAFBF0F000EB8000BB
:100E80004000A168B0FBF1F0401D86B20A20B6FB1D
:100E9000F0F606F00108A6EB0800C0F34F074FF686
:100EA000FF7000EA0828022F01DBFF2F02DD022776
:100EB0004FF00008E08840EA080038432884A08802
:100EC000A1890843618808432188084340F40060F1
:100ED00040EA0909A5F81C9005B0BDE8F08F002193
:100EE000018041808180C180018141818181C181F6
:100EF0000721018270470021018041808180C180EB
:100F00000221816000218181704721B1028842F075
:100F10004002028004E002884FF6BF731A4002804C
:100F2000704721B1828B42F48062828304E0828B1D
:100F30004FF6FF331A408283704730B500240023F8
:100F40000C110125A540ABB21AB185881D438580DF
:100F500002E085889D43858030BD1AB183880B43AC
:100F6000838002E083888B43838070478181704750
:100F70000146888970474FF6FF62914204D002888B
:100F800042F48072028004E002884FF6FF631A4048
:100F90000280704721B1828842F00402828004E01E
:100FA00082884FF6FB731A408280704702884FF2A6
:100FB000FF731A40028002880A430280704701884A
:100FC00041F480510180704721B1028842F40052FF
:100FD000028004E002884DF6FF731A4002807047D9
:100FE00002460020012901D0108B00E0908A704752
:100FF0000146088A7047B1F5804F04D1028842F457
:101000008042028004E002884BF6FF731A4002809F
:1010100070470246002013890B400BB1012000E00D
:1010200000207047CA4302817047F0B50246002095
:1010300000240023002501F00F070126BE40B4B2B2
:101040000B1101269E40B3B2968806EA0305168965
:10105000264016B10DB1012000E00020F0BD10B512
:10106000002201F00F040123A3409AB2D34303816D
:1010700010BD00000030014000380040003C00403E
:1010800010B50446FB48844209D101218803FFF7CB
:1010900027FE00214FF48040FFF722FE32E0F648A1
:1010A000844209D101214804FFF727FE00214FF4B3
:1010B0000030FFF722FE25E0F048844209D10121EB
:1010C0008804FFF71AFE00214FF48020FFF715FE79
:1010D00018E0EB48844209D10121C804FFF70DFE56
:1010E00000214FF40020FFF708FE0BE0E5488442A2
:1010F00008D101210805FFF700FE00214FF4801000
:10110000FFF7FBFD10BD2DE9F04786B005460E4602
:101110000024A24600BFA1460027B08900B100BF4D
:101120002F462C8A4CF6FF700440F08804432C8232
:10113000AC894EF6F3100440B088318908437189B8
:1011400008430443AC81AC8A4FF6FF400440B089A9
:101150000443AC8201A8FFF73CFDC648874202D198
:10116000DDF810A001E0DDF80CA0A88900F4004033
:1011700040B10AEBCA0000EB0A1031684900B0FB2D
:10118000F1F807E00AEBCA0000EB0A1031688900A9
:10119000B0FBF1F86420B8FBF0F0040120096421F1
:1011A00001FB1089A88900F4004040B1322000EB17
:1011B000C900B0FBF1F000F00700044308E0322062
:1011C00000EB09106421B0FBF1F000F00F000443C4
:1011D0002C8106B0BDE8F0874FF416510160002164
:1011E0008180C18001810C21418100218181704772
:1011F00010B502460020108A4FF2FF0318400B88FA
:101200004C8823438C882343CC8823431843108283
:1012100010BD0021018041808180C180704721B1D3
:10122000828942F40052828104E082894DF6FF7384
:101230001A4082817047F0B503460024002600253D
:10124000002040F66A17B94200D100BF1846C1F32A
:10125000421401F01F06012707FA06F5012C01D1FF
:101260000C3004E0022C01D1103000E014301AB12F
:1012700007682F43076002E00768AF430760F0BDCF
:101280001AB1838A0B43838202E0838A8B43838271
:101290007047028A4FF6F0731A400282028A0A43AC
:1012A0000282704782894FF2FF731A4082818289DD
:1012B0000A438281704721B1828942F00202828111
:1012C00004E082894FF6FD731A4082817047028ADA
:1012D0004FF6DF731A400282028A0A430282704785
:1012E00021B1028A42F48042028204E0028A4BF673
:1012F000FF731A4002827047C1F308028280704770
:1013000001468888C0F308007047818941F00101D7
:1013100081817047028BD2B20283028B42EA0122A2
:1013200002837047028B02F47F420283028B0A43DE
:101330000283704721B1828A42F02002828204E057
:10134000828A4FF6DF731A408282704721B1828A07
:1013500042F01002828204E0828A4FF6EF731A4054
:101360008282704721B1828A42F00802828204E0C0
:10137000828A4FF6F7731A408282704721B18289C0
:1013800042F40042828103E08289C2F30E0282812C
:10139000704721B1828A42F40062828204E0828A2C
:1013A0004FF2FF731A4082827047828A4FF6FB73B6
:1013B0001A408282828A0A438282704721B1828ADD
:1013C00042F00202828204E0828A4FF6FD731A40E4
:1013D0008282704702460020B1F5007F00D100BF35
:1013E00013880B400BB1012000E00020704701F48E
:1013F0000072B2F5007F00D100BFCA43028070477F
:1014000070B50246002400230025002040F66A162D
:10141000B14200D100BFC1F3421501F01F03012604
:1014200006FA03F3012D02D19689334006E0022D1E
:1014300002D1168A334001E0968A33400C1201260D
:1014400006FA04F41688344013B10CB1012000E010
:10145000002070BD10B50022002340F66A14A1429E
:1014600000D100BF0A1201249440A3B2DC430480DF
:1014700010BD00000038014000440040004800401A
:10148000004C00400050004010B504462CB901202B
:10149000F64909680882002010BDF5490968086806
:1014A0008047F24800680A30F6E710B5EF48006858
:1014B000C078F0494978884213DCEC4800688078AD
:1014C00078B9EA480068808858B9E8480068C07868
:1014D000E64909688872E64909684868804700203B
:1014E00010BD0220FCE710B504462CB90120DF49ED
:1014F00009680882002010BDDD49096888688047B6
:10150000DA4800680C30F6E710B5D84B1B68D9787C
:10151000D64B1B685879D84B1B689A69904704468C
:10152000D2480068807AE8B13CB9D04800680079B8
:1015300018B9CE480068807808B1022010BD8CB977
:10154000CB490968C8688047C84800684079C749DE
:101550000968C872C5480068C078C449096808733A
:101560000020EBE70220E9E710B504462CB9022081
:10157000BE4909680882002010BD0020BF490880CC
:10158000BA480068007800F07F0018BBB7490968C6
:10159000487A00F0200131B1B849097841F00201E0
:1015A000B64A117005E0B549097801F0FD01B34A6A
:1015B000117000F0400131B1B049097841F00101EA
:1015C000AE4A117005E0AD49097801F0FE01AB4A61
:1015D00011703AE0A5480068007800F07F0001280B
:1015E00001D1A648C8E7A1480068007800F07F0054
:1015F000022828D19D4A1268517901F00F0001F0AC
:1016000080027AB19E4B03EB8002D2F8002C02F0EC
:101610003002102A16D1994A127842F00102974BF3
:101620001A700FE0964B03EB8002D2F8002C02F404
:101630004052B2F5805F05D1904A127842F0010223
:101640008E4B1A7001E0002096E789490968086905
:1016500080478A4890E72DE9F04784480068007881
:1016600000F07F08B8F1000F0AD180480068407A86
:1016700000F0DF007D49096848720020BDE8F0876E
:10168000B8F1020F7ED179480068408818B97748D0
:101690000068007908B10220F0E7DFF8D8917348BC
:1016A0000068477927F080052C467048006840792B
:1016B00000F0800038B1724901EB8400D0F8000CD2
:1016C00000F0300606E06E4901EB8400D0F8000C13
:1016D00000F4405699F80000A84204D91EB16348AE
:1016E0000068807A08B90220C8E707F0800080B15E
:1016F000634901EB8400D0F8000C00F030001028A2
:101700004BD1E0B201F01DF8E0B2302100F09FFEB5
:1017100043E05B4901EB8400D0F8000C00F440503A
:10172000B0F5805F39D1E4B9564A92F82C10E0B296
:1017300001F091F8524A02EB8401D1F8001C4BF6FB
:101740008F7201EA020080F4805080F4005040F46F
:10175000004141F080014A4B03EB8402C2F8001CB7
:101760001BE0E0B200F0D5FF454A02EB8401D1F85E
:10177000001C4BF68F7201EA020080F4805080F466
:10178000005000E00FE040F4004141F080013C4B8C
:1017900003EB8402C2F8001C00BF354909684869A0
:1017A000804700206AE700BF022067E72DE9F0418B
:1017B0002E480068467926F080073C462B48006892
:1017C000407900F0800038B12D4901EB8400D0F859
:1017D000000C00F0300506E0294901EB8400D0F848
:1017E000000C00F4405523480078A04208D91F4857
:1017F0000068408820B91DB11C480068807A10B983
:101800000220BDE8F08106F08000A0B11C4A02EB86
:101810008401D1F8001C48F6BF7201EA020080F092
:10182000100040F4004141F08001154B03EB8402AD
:10183000C2F8001C14E0124A02EB8401D1F8001C2B
:101840004BF68F7201EA020080F4805040F40041B0
:1018500041F080010A4B03EB8402C2F8001C00BF78
:1018600003490968886980470020CAE730000020E2
:101870003C0000206C0100203400002028000020E3
:10188000005000407001002010B5F7480068407A11
:1018900040F02000F44909684872F4490968C869B1
:1018A0008047002010BD10B50246EF480068438A0B
:1018B00032B98888C01AEC4C24682082002010BD00
:1018C00008681844FBE72DE9F041E748006800F19B
:1018D00010042688A068C0B1BEB1A588B54200D961
:1018E0003546A8B2A168884707462088401B20805B
:1018F000608828446080002000F07FFF8046AAB204
:101900004146384600F03EFD00BF208850B14FF4FC
:101910004050D74908800021084600F07AFF302067
:10192000D44908802088A188884204DB0320CE495E
:101930000968087218E02088002804DD0520CA49DB
:101940000968087210E0208870B90620C649096845
:1019500008720021C848006880B2801CC74A42F85B
:1019600010103020C3490880BDE8F0812DE9F04710
:10197000BD48006800F110052E88BB480068077A52
:10198000D6B9042F18D1BE48007801280FD1002104
:10199000B948006880B2801CB84A42F81010302064
:1019A000B449088000BF0020B549087003E007274C
:1019B0001020B049088027E0AC88A64201D8042056
:1019C00000E002200746B44200D93446A0B2A9681C
:1019D00088478046002000F005FF8146A2B24946B4
:1019E000404600F0B5FCA1B2002000F012FF2888AC
:1019F000001B288068882044688030209D4908802A
:101A000000029B49088000BF974909680F72BDE832
:101A1000F08770B5022694480068447892480068C0
:101A2000007800F07F00002844D1092C03D1FFF793
:101A30003CFD06465FE0052C14D18B480068C07859
:101A40007F280BDC88480068807838B986480068B1
:101A5000808818B984480068807A08B1082565E054
:101A6000002648E0032C0ED17F480068C07801288A
:101A700007D17D480068808818B9FFF705FF064642
:101A800039E0022637E0012C35D177480068C0786C
:101A900001280DD174480068808848B972480068F0
:101AA000407A00F0200018B1FFF7D5FD064622E08D
:101AB000022620E06C480068007800F07F000128D2
:101AC00005D10B2C17D1FFF71FFD064613E0664822
:101AD0000068007800F07F0002280BD1012C03D1B0
:101AE000FFF7B9FD064606E0032C04D1FFF75EFEC2
:101AF000064600E002264EB1E0B2624A1268516921
:101B000088470646032E01D109250FE00EB10825AE
:101B10000CE0062500215848006880B2801C574A16
:101B200042F8101030205349088000BF4E49096820
:101B30000D7270BD2DE9F84F4B48006845780027BD
:101B4000BA46062D1BD148480068007800F07F0097
:101B5000002813D1444909688878012803D14949EC
:101B60000968CF690AE0022803D1464909680F6A6B
:101B700004E0032802D1434909684F6AADE0002D13
:101B800067D1394800684088002862D1364800682B
:101B9000C08802285DD1344800680079002858D1F7
:101BA00031480068007800F07F0030B92E480068A6
:101BB000808810B9AFF24F678FE02B48006800783B
:101BC00000F07F00012811D12749096848792D4983
:101BD00009688A690021904700287ED12248006860
:101BE000807A002879D0AFF27F6776E01E480068DF
:101BF000007800F07F0002286FD11B480068407910
:101C000000F00F0618480068407900F07009164887
:101C10000068407900F0800038B11B4901EB860074
:101C2000D0F8000C00F0300806E0174901EB860000
:101C3000D0F8000C00F4405814480078B0424CD959
:101C4000B9F1000F49D1B8F1000F46D0AFF2E76704
:101C500043E0082D1CD104480068007800F07F00A4
:101C6000D8BBAFF2DB7738E0300000203C0000202A
:101C70004000002042000020505C00400060004016
:101C80002A00002034000020005000406C01002099
:101C90000A2D22D1C5480068007800F07F00012895
:101CA0001BD1C2480068807AB8B1C048006840883B
:101CB00098B9BE480068007978B9BC480068C08807
:101CC00001280AD1B94909684879B94909688A6976
:101CD0000021904708B9AFF2F17757B1B3480068D7
:101CE000A0F812A0B148006887610020B84700241E
:101CF0000FE0AE4A12685078AD4A12681169884701
:101D00000446032C05D10920A84909680872BDE8DA
:101D1000F88FA6480068008A4FF6FF71884204D108
:101D20000920A24909680872F1E7022C03D09F48F4
:101D30000068008A20B908209C4909680872E6E713
:101D40009A480068007800F08000E0B39748006887
:101D5000C088009095480068008A0099884204D99C
:101D6000924900980968088223E090480068008A38
:101D70008E490968C98888421BDA8C480068008A45
:101D80008B49096891F82C10884203DA00208949B0
:101D900008700EE085480068008A8549096891F856
:101DA0002C1090FBF1F201FB120010B901208149C7
:101DB00008707F48006890F82C107C480068818289
:101DC000FFF7D4FD07E0FFE70320784909680872B0
:101DD00000037949088000BF99E710B5774890F86B
:101DE0002C10002000F037FD70480068007A0828A9
:101DF00005D14002704908801020714908806B4865
:101E00000068007A092801D1012010BD0020FCE7FC
:101E100038B501246B48006880B2001D6A4931F86A
:101E2000100080B201EB4000009060480068007A2A
:101E3000092832D0009800785C4909680870009839
:101E4000401C009000980078584909684870009834
:101E5000401C0090009800EB44000090009931F87D
:101E6000020B009100F0A0FE5049096848800098DC
:101E700000EB44000090009931F8020B009100F053
:101E800093FE4A4909688880009800EB440000905E
:101E90000098008845490968C880012043490968BD
:101EA000087242480068C08810B9FFF7B2FD01E02F
:101EB000FFF740FEFFF791FF38BD30B50146434BB9
:101EC0001A78002014E00306414C04EB9353D3F836
:101ED000003C48F68F74234048F280042343C4B288
:101EE000234304063A4D05EB9454C4F8003C401CCF
:101EF0009042E8D341F08003324C241F236030BD70
:101F000010B52A480068047A022C01D0042C05D1AF
:101F1000FFF72CFD25480068047A1CE0062C19D137
:101F200022480068407805280ED1204800680078D3
:101F300000F07F0040B91D490968C878FFF7BDFF70
:101F400024490968086A80471949096888688047F0
:101F5000082400E00824154909680C72FFF73DFFCA
:101F600010BD10B511480068047A022C01D0042C71
:101F700001D1082412E0032C01D0052C05D1FFF774
:101F8000A2FC0A480068047A08E0072C05D1084939
:101F90000968C8688047082400E0082403490968E4
:101FA0000C72FFF71AFF10BD7047000030000020D0
:101FB000340000202A000020400000207001002092
:101FC00042000020505C0040006000406C01002096
:101FD000005000403C00002010B508480849086047
:101FE000022009680872074807490860074808493D
:101FF0000860054909680868804710BD6C02002028
:10200000300000207001002034000020A0010020DA
:102010003C00002008B50020009022E1C448008860
:1020200000F00F00C34908700846007800287CD1F2
:10203000C1480068C14908800846008800F03000A7
:10204000BF490880BD48008800F44050BB49088063
:10205000B94909684BF6BF7201EA020080F40050EA
:1020600080F0200040F4004141F08001B24A11604C
:10207000AF48008800F0100090BB1046006848F69A
:102080000F71084011460860FFF73AFFAA49096836
:102090004BF6BF7201EA0200A849098801F4805199
:1020A00009B180F48050A549098801F4005109B1B3
:1020B00080F40050A249098801F0100109B180F0B4
:1020C00010009F49098801F0200109B180F020002B
:1020D00081B241F4004141F08001974A116008BD8E
:1020E000FFE79548006880B20090BDF8000000F45A
:1020F0000060B0B390480068C0F30E0048F68F71DE
:1021000008408D490860FFF783FE8B4909684BF64C
:10211000BF7201EA02008949098801F4805109B1BE
:1021200080F480508549098800E056E001F40051B0
:1021300009B180F400508249098801F0100109B109
:1021400080F010007E49098801F0200109B180F07B
:10215000200081B241F4004141F08001764A1160D3
:10216000BDE7FFE7BDF8000000F40040002878D08C
:1021700071480068C0F30E0048F68F7108406E4940
:102180000860FFF7EEFE6C4909684BF6BF7201EA82
:1021900002006A49098801F4805109B180F4805035
:1021A0006649098801F4005109B180F4005064497E
:1021B000098801F0100109B180F010006049098818
:1021C00001F0200109B180F0200081B241F400410A
:1021D00041F08001584A116081E75648007859491A
:1021E00001EB8000D0F8000C80B20090BDF8000038
:1021F00000F40040C0B14F48007801EB8000D0F8F7
:10220000000CC0F30E0048F68F7108404949097868
:102210004C4A02EB8101C1F8000C46490978491E7D
:10222000494A52F821008047BDF8000000F08000C4
:10223000B8B140480078434901EB8000D0F8000C69
:1022400048F60F7108403B4909783E4A02EB81018C
:10225000C1F8000C37490978491E3C4A52F8210060
:10226000804735484430006880B23149088000F426
:10227000004000287FF4D2AE00BF30E710B5002444
:102280004AE047F6FF702C4944310860284800882E
:1022900000F00F002749087008460078294901EB33
:1022A0008000D0F8000C84B204F40040C8B121488A
:1022B000007801EB8000D0F8000CC0F30E0048F667
:1022C0008F7108401B4909781E4A02EB8101C1F851
:1022D000000C18490978491E1B4A52F82100804712
:1022E0001AE004F08000B8B112480078154901EBFB
:1022F0008000D0F8000C48F60F7108400D490978AD
:10230000104A02EB8101C1F8000C0A490978491E04
:102310000E4A52F82100804707484430006880B2D6
:102320000349088000F400400028AAD110BD000035
:102330002C0100202C000020005C00404000002008
:1023400042000020005000404C01002030010020DD
:10235000F0B5144604F1010C4FEA6C07DFF848C0F1
:102360000CEB41033D460AE00678401C90F800C0A3
:1023700046EA0C2223F8022B9B1C401C6D1E002DEC
:10238000F2D1F0BDF0B5561C7510074E06EB4104B6
:102390002B4605E034F8047B20F8017B401C5B1ED3
:1023A000002BF7D1F0BD000000600040FA49086042
:1023B0007047F948006880B27047F749091D086006
:1023C0007047F548001D006880B27047F248083039
:1023D000006880B27047F0490C3108607047EE48E1
:1023E0000C30006880B270474FF6F8710140EA4A3D
:1023F000103211607047E8481030006880B27047B2
:10240000E64B03EB8002C2F8001C70470146E34A2A
:1024100002EB8100D0F8000C80B2704710B5DF4BA2
:1024200003EB8002D2F8002C48F68F131A400A43BF
:10243000DA4C04EB8003C3F8002C10BD0146D74AE8
:1024400002EB8100D0F8000C00F4C060704730B59A
:10245000D24C04EB8003D3F8003C48F6BF7403EA87
:10246000040201F010030BB182F0100201F020030E
:102470000BB182F0200242F4004343F08003C74DC9
:1024800005EB8004C4F8003C30BD30B5C34C04EB10
:102490008003D3F8003C4BF68F7403EA040201F486
:1024A00080530BB182F4805201F400530BB182F4DB
:1024B000005242F4004343F08003B84D05EB800422
:1024C000C4F8003C30BD30B503460C461846FFF753
:1024D0009DFF0546012C07D125F48050AF4A02EB41
:1024E0008301C1F8000C08E0022C06D125F0100091
:1024F000AA4A02EB8301C1F8000C30BD0146A74A8D
:1025000002EB8100D0F8000C00F03000704701466B
:10251000A24A02EB8100D0F8000C00F44050704752
:1025200010B59E4B03EB8002D2F8002C48F6BF7327
:1025300002EA030181F0100181F0200141F4004220
:1025400042F08002954C04EB8003C3F8002C10BDD0
:1025500010B5924B03EB8002D2F8002C4BF68F7330
:1025600002EA030181F4805181F4005141F40042F8
:1025700042F08002894C04EB8003C3F8002C10BDAC
:10258000864A02EB8001D1F8001C41F4807148F6C4
:102590008F72114048F280021143804B03EB80029E
:1025A000C2F8001C70477D4A02EB8001D1F8001C84
:1025B00048F68F62114048F280021143774B03EBDB
:1025C0008002C2F8001C7047744A02EB8001D1F807
:1025D000001C48F68F62114048F2800211436F4B95
:1025E00003EB8002C2F8001C70476C4A02EB8001CA
:1025F000D1F8001C41F4807148F68F72114048F206
:1026000080021143654B03EB8002C2F8001C704747
:10261000624A02EB8001D1F8001C41F4807148F657
:102620008F72114048F2800211435C4B03EB800231
:10263000C2F8001C7047594A02EB8001D1F8001C17
:1026400048F68F62114048F280021143534B03EB6E
:102650008002C2F8001C70470146504A02EB81001C
:10266000D0F8000C00F03000102801D10120704794
:102670000020FCE70146494A02EB8100D0F8000C3B
:1026800000F44050B0F5805F01D101207047002078
:10269000FCE7424A02EB8001D1F8001CC1F30E01B5
:1026A00048F68F7211403D4B03EB8002C2F8001CCC
:1026B00070473A4A02EB8001D1F8001C48F60F72CD
:1026C0001140364B03EB8002C2F8001C7047334ABE
:1026D00002EB8001D1F8001C48F68F7211404CF2D9
:1026E000800211432D4B03EB8002C2F8001C70479F
:1026F0002A4A02EB8001D1F8001C48F68F72114083
:1027000048F2C0021143254B03EB8002C2F8001CC3
:102710007047224A02EB8001D1F8001C01F480418D
:1027200071B102EB8001D1F8001C48F68F721140A4
:102730004CF280021143194B03EB8002C2F8001CDB
:102740007047164A02EB8001D1F8001C01F04001ED
:1027500071B102EB8001D1F8001C48F68F72114074
:1027600048F2C00211430D4B03EB8002C2F8001C7B
:10277000704710B5094B03EB8002D2F8002C48F6E5
:102780008F731A4048F280031A430A43034C04EB48
:102790008003C3F8002C10BD405C00400050004096
:1027A0000146FC4A02EB8100D0F8000C00F00F005B
:1027B000704710B54A105200F74B1B689BB203EBF1
:1027C000C003F64C44F8132010BD10B54A10530056
:1027D000F14A126892B202EBC002121DEF4C44F8AB
:1027E000123010BD0146EC48006880B200EBC10019
:1027F000EA4A32F8100080B270470146E6480068A5
:1028000080B200EBC100001DE44A32F8100080B233
:102810007047E14A126892B202EBC002921CDF4B91
:1028200043F81210704702463E290BDD481101F0B3
:102830001F030BB9431E98B24FF4004343EA8023B1
:10284000136007E0481001F001030BB1431C98B27C
:1028500083021360704710B50246CF48006880B20B
:1028600000EBC200801DCD4C04EB40033E290BDD84
:10287000481101F01F040CB9441EA0B24FF40044EB
:1028800044EA80241C6007E0481001F001040CB108
:10289000441CA0B284021C6010BD0146BE48006802
:1028A00080B200EBC100801CBC4A32F81000C0F3BB
:1028B000090070470146B848006880B200EBC100CB
:1028C000801DB64A32F81000C0F30900704730B5D9
:1028D0004B105B00B04C2468A4B204EBC004AF4DB5
:1028E00045F8143053105C00AB4B1B689BB203EBF4
:1028F000C0031B1D45F8134030BD10B54A105200EF
:10290000A54B1B689BB203EBC003A44C44F81320F7
:1029100010BD10B54A1053009F4A126892B202EBE4
:10292000C002121D9D4C44F8123010BD01469A4859
:10293000006880B200EBC100984A32F8100080B203
:10294000704701469448006880B200EBC100001D4A
:10295000924A32F8100080B2704730B50B46012B16
:102960001FD18D49096889B201EBC001891C8B4DCB
:1029700005EB41043E2A0BDD511102F01F050DB994
:102980004D1EA9B24FF4004545EA8125256007E0B8
:10299000511002F001050DB14D1CA9B28D02256048
:1029A0000AE0022B08D17C49096889B201EBC00119
:1029B000891C7A4C44F81120012B1FD176490968F3
:1029C00089B201EBC001891D744D05EB41043E2A1B
:1029D0000BDD511102F01F050DB94D1EA9B24FF4C8
:1029E000004545EA8125256007E0511002F0010508
:1029F0000DB14D1CA9B28D0225600AE0022B08D151
:102A00006549096889B201EBC001891D634C44F82E
:102A1000112030BD30B5034601291FD15E48006842
:102A200080B200EBC300801C5C4D05EB40043E2AE5
:102A30000BDD501102F01F050DB9451EA8B24FF471
:102A4000004545EA8025256007E0501002F00105A9
:102A50000DB1451CA8B2850225600AE0022908D103
:102A60004D48006880B200EBC300801C4B4C44F81A
:102A7000102030BD30B5034601291FD146480068FB
:102A800080B200EBC300801D444D05EB40043E2A9C
:102A90000BDD501102F01F050DB9451EA8B24FF411
:102AA000004545EA8025256007E0501002F0010549
:102AB0000DB1451CA8B2850225600AE0022908D1A3
:102AC0003548006880B200EBC300801D334C44F8E9
:102AD000102030BD01463048006880B200EBC100D4
:102AE000801C2E4A32F81000C0F3090070470146DE
:102AF0002948006880B200EBC100801D274A32F8E7
:102B00001000C0F30900704701462348006880B2F6
:102B100000EBC100801D214A32F8100000F47C4017
:102B200008B1012070471C48006880B200EBC1006A
:102B3000801C1A4A32F81000C0F3090008B10220C4
:102B4000F0E70020EEE710B5012910D1114B03EB9F
:102B50008002D2F8002C48F68F731A4048F2C00366
:102B60001A430C4C04EB8003C3F8002C11E002293B
:102B70000FD1084B03EB8002D2F8002C48F68F737C
:102B80001A404CF280031A43024C04EB8003C3F852
:102B9000002C10BD00500040505C00400060004020
:102BA000024641EA022070470146CAB20B1243EACC
:102BB0000220704700201D4908604FF404401C4962
:102BC0000880084600881949091F086000207047DE
:102BD0002DE9F04104460E46154604F07F00FFF74C
:102BE00001FE0746AAB239463046FFF7B1FBA9B24B
:102BF00004F07F00FFF70DFE0020BDE8F0812DE915
:102C0000F04104460E46002504F07F00FFF752FE17
:102C1000054604F07F00FFF7F0FD07462A463946D7
:102C20003046FFF7AFFB2846BDE8F081445C00402A
:102C30003A00002010B5002000F09EF810BD10B53D
:102C4000FFF7F8FF10BD10B50020FDF78FFF012141
:102C5000C805FEF738F810BD0320424908607047E8
:102C60004148817A19B105213E4A116002E00121F3
:102C70003C4A1160704708B54FF4C060FDF742FB55
:102C800014208DF8000001208DF8010002208DF83D
:102C9000020001208DF803006846FDF738FB132081
:102CA0008DF8000001208DF801008DF802008DF8EC
:102CB00003006846FDF72BFB08BD38B5044601212B
:102CC0000420FDF7F3FF4FF40040ADF800000320AF
:102CD0008DF8020014208DF8030069462348FDF7A3
:102CE00009FD2CB14FF400412048FDF7B2FD04E08E
:102CF0004FF400411D48FDF7AAFD38BD30B50B4625
:102D0000002100BF16E00A24B4EB107F05D930245F
:102D100004EB107403F8114005E0412404EB107437
:102D20000A3C03F81140000100254C00641C1D55AD
:102D30004C1CE1B29142E6DB30BD70B50C48046832
:102D4000001D0568001D0668344454B10822094975
:102D50002046FFF7D3FF0422064910312846FFF72B
:102D6000CDFF70BDFC0100206C0200200008014076
:102D7000E8F7FF1F1201002070B50446002574B962
:102D800001F09CFA01F0ECFC2C49884203D10020B0
:102D90002B49086002E001202949086001E0012078
:102DA00070BD00BF2846FBE72DE9F04105460C4603
:102DB00016461F4655B904F50014204601F02AFBBB
:102DC0003A462146304601F0D3FB02E00120BDE83F
:102DD000F08100BF0020FAE72DE9F04104460F46DC
:102DE00015461E463CB907F50017324639462846B7
:102DF00001F091FC02E00120BDE8F08100BF00205D
:102E0000FAE710B50446B4B901F058FA01F0A8FC8D
:102E10000A4988420FD14FF480500A4908604FF4A4
:102E20006060094908600748006809684843074925
:102E30000860002010BD0120FCE700001840EF00F2
:102E40005C0000204C0000205400002044000020C2
:102E500070B504460D4616467448007870B974483B
:102E600050F82400684373490860714850F8240002
:102E700070437149086001206C4908706B48007804
:102E8000012844D16D480068C0B9694830F8240071
:102E900083B26B4A674801682046FFF79DFF4022D6
:102EA00067498120FFF794FE614850F824004038BC
:102EB0006249086040206349086011E06048614A47
:102EC0001268811840228120FFF782FE5B4800686B
:102ED00040385A4908605B480068403059490860EA
:102EE00040210120FFF795FC30210120FFF7AFFAC8
:102EF0005048006840304F4908604F4800684038EB
:102F00004D4908605048806840384F4988604A48B9
:102F1000006860B90020494908604A49086045498D
:102F2000086003204949087000204049087070BDBE
:102F30002DE9F04104460D4616464548006800F16B
:102F400040073A48007870B9394850F8240068437F
:102F500040490860364850F8240070433E490860F4
:102F60000120324908703148007801284CD10020F6
:102F70003A49086010E0394801680068401C374A47
:102F800010603748415C2E48314A126881543048FD
:102F90000068401C2E4908602D480068B842EAD3FA
:102FA0002C4800682F49098808442A4908602A48A3
:102FB00000682C490988401A274908601C4850F8C5
:102FC00024000968B1FBF0F200FB121080B9002068
:102FD0001F490860164830F8240083B2144850F89E
:102FE00024001C4A1268111A154A2046FFF7DCFE1D
:102FF000154880681B490988401A134988604FF4B6
:1030000040510220FFF741FA1348006818B10F48F9
:103010000078042808D100200D490860012100F043
:1030200023F8002001490870BDE8F08170000020FD
:103030004C00002074000020780000206000002078
:103040008802002064000020E81200200401002013
:10305000680000207C000020800000206C00002020
:10306000881200200601002070B505460C46F9487C
:10307000F9490860084605730D228120FFF7A8FD75
:103080000520F64908702CB1042008703021012079
:10309000FFF7DDF970BD10B5F0480078022810D0B8
:1030A00003281DD0042802D0052823D100E000BF4A
:1030B0000020EA4908704FF440510220FFF7E5F97B
:1030C00019E0E748C07B282808D1E549487BE54955
:1030D0000A68E549096800F0F8FC00BF00BF0AE093
:1030E00001210020FFF7C0FF4FF440510220FFF7FD
:1030F000CCF900E000BF00BF10BD10B5044624B1FC
:10310000012C07D0022C15D10AE010210120FFF775
:103110009EF910E04FF480510220FFF7B6F90AE063
:1031200010210120FFF793F94FF480510220FFF79F
:10313000ACF900E000BF00BF10BD10B5002404E0F2
:10314000CA48005DC6490855641CC94800888442C5
:10315000F6D3C3484068C0494860C1488068886069
:10316000C34800881F280FD00220FFF7C6FF0020A9
:10317000BB490860487B1A22052100F0BEFB0021F4
:103180000120FFF771FF10BDB548C07B282803D090
:10319000B348C07B2A2816D1B148407C0106B0480C
:1031A000807C41EA0041AE48C07C41EA0020AC4945
:1031B000097D0843AC490860A948C17D807D41EA8A
:1031C0000020A8490860A6480068AA4988426FD133
:1031D000A348407BA8490968884207D8A048807B5B
:1031E000012803DB9E48807B10280DDD0220FFF7BD
:1031F00084FF9B49487B2422052100F07EFB0021AF
:103200000120FFF731FFE8E09548C07B25285FD01B
:103210001BDC15286FD00EDC08286DD006DC0028DA
:103220005BD0032830D0042867D176E00A286ED01E
:103230001228F9D12DE01A380A285ED2DFE800F012
:10324000392EB17D33B1B1B1B1438A286FD00EDCD4
:10325000552867D006DC282844D02A284ED02F28AD
:10326000E2D155E05A2829D08828DDD176E0A82877
:103270006DD004DC8F286FD09E28D5D173E0AA28AA
:103280007BD0AF28D0D182E07549487B00F0C8FBE5
:1032900095E07349487B00F015FB90E07049487B4E
:1032A00000F0CDFB8BE06E49487B00F0C8FB86E068
:1032B00086E06B49487B00F0A5FB80E06849487BCD
:1032C00000F0A7FB7BE06649487B00F01AFB76E044
:1032D0006349487B00F051FB71E06149487B00F095
:1032E00097FC6CE05E49487B5E490A685E49096864
:1032F00000F0EBFB63E01BE024E052E05849487B20
:1033000058490A685849096800F016FC57E02FE050
:103310005349487B00F047FC51E05149487B00F09D
:1033200091FC4CE04E49487B00F0A2FC47E029E0CC
:103330004B49487B00F09CFC41E04949487B00F048
:1033400097FC3CE04649487B00F092FC37E044495A
:10335000487B00F08DFC32E01EE00EE04049487BE7
:1033600000F086FC2BE03E49487B00F081FC26E023
:103370003B49487B00F07CFC21E03949487B00F068
:1033800077FC1CE03649487B00F072FC17E03449BA
:10339000487B00F06DFC12E03149487B00F068FC8E
:1033A0000DE00220FFF7A9FE2D49487B20220521D0
:1033B00000F0A3FA00210120FFF756FE00BF0CE049
:1033C0000220FFF79AFE2649487B2022052100F0C3
:1033D00094FA00210120FFF747FE00BFD3E610B5A5
:1033E0001F48C47B21490220FFF709FC20490880BF
:1033F0001A48007810B101281CD102E0FFF79DFEA9
:1034000026E02A2C08D11649487B16490A68164935
:10341000096800F091FB1BE00120FFF76EFE1049E8
:10342000487B2422052100F068FA00210220FFF7E2
:103430001BFE0DE00220FFF760FE0949487B2422B5
:10344000052100F05AFA00210220FFF70DFE00BF0F
:1034500000BF10BD55534253E81200200401002064
:10346000C81200200C010020080100208812002052
:1034700006010020555342436801002070B50546FF
:103480000C46224629468120FFF7A2FB302101206D
:10349000FEF7DDFF03200549087005488068001B22
:1034A000034988600020087370BD000004010020FB
:1034B000E812002010B5FFF7EEFD10BD10B5FFF7C4
:1034C0008EFF10BD10B50F4800680F4908800846F0
:1034D000008800F400400D490988084008B1FEF753
:1034E00099FD0948008800F480600849098808406F
:1034F00030B14FF6FF3003490860054948688047FE
:1035000010BD0000445C00402C0100203A00002067
:103510007001002010B5FFF710FC00208B490968EE
:10352000887200F02BF9FFF745FB002088490860FE
:1035300010BD10B50020874988728748C07983493B
:10354000096848720020FEF74FFF4FF40071002019
:10355000FEF764FF20210020FEF779FF18210020EC
:10356000FFF733F97D4890F82C100020FFF773F92E
:1035700058210020FFF71DF90020FFF725F8002053
:10358000FEF7E6FF00210120FEF748FF9821012009
:10359000FFF70FF920210120FEF759FF002101203C
:1035A000FEF773FF00210220FEF738FFD82102202A
:1035B000FFF70BF9694890F82C100220FFF74BF940
:1035C0004FF440510220FEF760FF00210220FEF779
:1035D0003EFF624890F82C100020FFF73CF90020D5
:1035E000FEF7B6FF0020FEF768FC0120584908608E
:1035F0005B485C49086000205B49087010BD10B54D
:1036000052480068807A58B105205149086001206D
:10361000FFF797F80220FFF77CF800205249087066
:1036200010BD10B54F4800684D49884202D00220B5
:10363000FFF763FD10BD04204549086070477047DF
:103640007047014629B90120404A126810820020C3
:1036500070474648FCE770B5054600243B480068C3
:10366000007800F07F00212811D1FE2D0FD13748BE
:103670000068408858B935480068808838B93348B0
:103680000068C088012802D1AFF2490401E002209D
:1036900070BD0CB90220FBE72C4800688461002152
:1036A0002A48006841820020A0470020F0E710B5BA
:1036B000044626480068007800F07F0021281AD1CF
:1036C000FF2C18D1214800684088A0B91F48006825
:1036D000808880B91D480068C08860B90120FFF764
:1036E00030F80220FFF715F81D481E490860002039
:1036F0001D49087010BD0220FCE70246002901DDCB
:1037000002207047002A01DD0220FAE70020F8E7D6
:1037100010B5044616492046FEF7C5F810BD10B591
:10372000044614492046FEF7BEF810BD70B50546A4
:1037300006480068C478052C01DD002070BD0E48E5
:1037400000EBC4012846FEF7AEF8F7E73000002092
:10375000FC0100206C020020BA2901087001002041
:1037600055534243C8120020040100206801002084
:10377000C4010020CC010020D401002010B501209C
:10378000FFF79BFA01244C48046000204B49088055
:1037900008460088484908600020091D08604FF469
:1037A000E0504649088008460088434908600020E8
:1037B00010BD10B50120404908600020091D0860B7
:1037C000FFF77BFA03203C490860002010BD10B5CC
:1037D0003948006884B244F008043748046000683F
:1037E00084B244F0040434480460FFF735FA10BD95
:1037F00010B53148006884B224F004042E480460F7
:10380000FFF72EFA4FF404402B49086010BD70B545
:103810000546072D01D02A48057029480078082858
:1038200041D2DFE800F0040A1016212E4142FFF7D2
:10383000DFFF0620224908703BE0FFF7D9FF042094
:103840001F49087035E002201D49487003200870A8
:103850002FE01B484078401E1949487008464078C0
:1038600008B90420087024E01348006884B244F0CA
:103870001004114804600520114908700A2048709E
:1038800017E00F484078401E0D49487008464078C0
:1038900040B90948006884B224F010040648046066
:1038A0000620087005E000BF00BF0620044908702C
:1038B00000BF00BF70BD0000405C00403A00002027
:1038C0000102002070B50646F948007C00F00100B6
:1038D00010B1F84C05250BE00EB9F74C00E0F74CA1
:1038E000F348C07C242802DCF148C57C00E0242594
:1038F00029462046FFF7C2FD70BDF14B99701A733F
:10390000704710B504462046FFF77BFA68B1E849D6
:10391000487B3A220221FFF7F0FF01210846FFF71A
:10392000A3FB0020FFF7E9FB10BDE64850F8240098
:10393000000EE5490871E34850F82400000C487176
:10394000E04830F82400000A8871DE4810F82400AE
:10395000C871DE4850F82400000C4872DB4830F88B
:103960002400000A8872D94810F82400C8720C217B
:10397000D548FFF783FD00BFD6E710B504462046C3
:10398000FFF73FFA68B1CA49487B3A220221FFF7A4
:10399000B4FF01210846FFF767FB0020FFF7ADFBEE
:1039A00010BDC84850F82400401E000EC8490870D9
:1039B000C44850F82400401E000C4870C14830F83C
:1039C0002400401E000A8870BE4810F82400401EE3
:1039D000C870BE4850F82400000E0871BB4850F86B
:1039E0002400000C4871B94830F82400000A88719E
:1039F000B64810F82400C8710821B548FFF73EFD0D
:103A000000BFCDE710B504460421B248FFF736FDEC
:103A100010BD10B504460821AF48FFF72FFD10BDBB
:103A200070B50546A248C07C122802DCA048C47CC0
:103A300000E012242146A248FFF720FD70BD10B51A
:103A4000044601210020FFF70FFB10BD2DE9F041D6
:103A500004460D4617461E46B8199A4951F82410D7
:103A6000884213D92A2D02D10220FFF746FB0020FD
:103A7000FFF743FB212205212046FFF73EFF0021EF
:103A80000120FFF7F1FA0020BDE8F0818848816845
:103A90008E4850F824007043814214D02A2D03D15F
:103AA0000220FFF72AFB02E00020FFF726FB8049F7
:103AB000487B24220521FFF720FF00210120FFF78A
:103AC000D3FA0020E0E70120DEE770B506460C4699
:103AD00015468248007820BB7549487B2B46224614
:103AE0002821FFF7B3FF00B970BD7148007B00F0DB
:103AF000800040B10220794908702A4621463046AC
:103B0000FFF7A6F90CE00220FFF7F7FA6849487BB7
:103B100024220521FFF7F1FE01210846FFF7A4FA50
:103B2000E2E76E480078022804D12A462146304652
:103B3000FFF78EF900BFD7E770B506460C4615466D
:103B40006648007820BB5A49487B2B4622462A21EA
:103B5000FFF77CFF00B970BD5548007B00F0800086
:103B600040B901205D4908704FF440510220FEF732
:103B70008CFC0CE00020FFF7C0FA4D49487B242262
:103B80000521FFF7BAFE00210120FFF76DFAE2E7F9
:103B900052480078012804D12A4621463046FFF7D2
:103BA000C7F900BFD7E710B504464148806848B957
:103BB0003F48007C00F0040020B901210020FFF7FD
:103BC00053FA0CE00220FFF798FA3949487B242287
:103BD0000521FFF792FE00210120FFF745FA10BDF5
:103BE00010B504463248806868B10220FFF785FAB4
:103BF0002F49487B20220521FFF77FFE002101206D
:103C0000FFF732FA03E001210020FFF72DFA10BD83
:103C100010B504462046FFF7F4F868B12449487B04
:103C20003A220221FFF769FE01210846FFF71CFA3C
:103C30000020FFF762FA10BD01210020FFF714FAFF
:103C400000BFF8E710B504462046FFF7DAF868B180
:103C50001749487B3A220221FFF74FFE012108460F
:103C6000FFF702FA0020FFF748FA10BD00BFFCE79B
:103C700010B504460E48806818B90020FFF73DFAD9
:103C80000BE00B48007B00F0800018B10020FFF72C
:103C900034FA02E00220FFF730FA0549487B20227F
:103CA0000521FFF72AFE00210120FFF7DDF910BDF5
:103CB000C81200208400002089000020AD000020F0
:103CC000DD00002054000020F70000204C00002000
:103CD000EF000020D1000020D500002004010020CA
:103CE00008B54FF4A060FCF70DFB25208DF800000F
:103CF00001208DF8010000208DF8020001208DF8D0
:103D000003006846FCF703FB0E208DF8000002203C
:103D10008DF8010000208DF8020001208DF80300CD
:103D20006846FCF7F4FA08BD70B540F22441FE483D
:103D3000FDF766FB00285CD0002500BFFA48058827
:103D4000001D05880021F948FCF717FCF748FCF72F
:103D50002BFCC0F5807084B22146F5480CF0C0F809
:103D6000F448007801283AD10020F149085500BFF5
:103D7000062009282AD2DFE800F005090D111519DF
:103D80001D212500ECA00EF007F91FE0ECA00EF0BD
:103D900003F91BE0ECA00EF0FFF817E0ECA00EF02A
:103DA000FBF813E0ECA00EF0F7F80FE0ECA00EF03B
:103DB000F3F80BE0ECA00EF0EFF807E0ECA00EF04B
:103DC000EBF803E0ECA00EF0E7F800BF00BFD84925
:103DD000EBA00EF0E1F8DEA00EF0DEF800BF4FF42D
:103DE0008071D248FCF7DEFB0121D048FCF7C5FB0F
:103DF00000BF70BD10B54FF40050FCF7F8FB012870
:103E000007D10003FCF7E8FB0021C8481438FCF791
:103E1000B4FB10BD70B505460C46DCB1B4F5807F2F
:103E200001DD4FF4807422462946D6480DF092FCFD
:103E30000021BE481438FCF7A0FBBC485838846405
:103E40000121BA481438FCF798FB01228021B648BA
:103E5000FDF716FA70BD10B590B00446012104209C
:103E6000FCF724FF01218803FCF720FF4FF40070CA
:103E7000ADF83C0018208DF83F0003208DF83E007F
:103E80000FA9C148FCF736FC4FF48060ADF83C0048
:103E900004208DF83F000FA9BB48FCF72BFC0B94C6
:103EA0000020ADF83000ADF83200ADF83400ADF8C8
:103EB00038000C20ADF836000BA99B48FDF723F91C
:103EC000FFF70EFF01219848FDF7A9F901210846E7
:103ED000FCF7DFFE9548FCF783FA9348001D00903D
:103EE00093480190002002904FF4807003900020CE
:103EF00004908020059000200690079008904FF4D1
:103F00004050099000200A9069468848FCF70AFB57
:103F1000002240F226618448FDF78DF9002240F22C
:103F200025518148FDF787F9012240F224417E485E
:103F3000FDF781F9012240217B48FDF7A1F901211C
:103F40007A48FCF71AFB79481438FCF749FA7648A6
:103F5000001D00908B4801901020029000010390FA
:103F60000020049080200590002006900790089083
:103F70004FF40050099000200A9069466B481438AD
:103F8000FCF7D0FA4FF48050FCF726FB0122022107
:103F900066481438FCF7FDFA002164481438FCF731
:103FA000ECFA10B010BD70471CB540F225517748AF
:103FB000FDF726FA60B17548FDF7A2F9C0B201908D
:103FC00001A84123724A911E0090881E01F011F948
:103FD0001CBD08B54FF4A060FCF794F926208DF8BD
:103FE000000003208DF801008DF8020001208DF8FB
:103FF00003006846FCF78BF908BD10B586B004468F
:1040000001210420FCF752FE01214804FCF75BFE6D
:104010000420ADF8140018208DF8170003208DF847
:10402000160005A95848FCF765FB0820ADF81400F8
:1040300004208DF8170005A95348FCF75BFB554891
:1040400001900020ADF80800ADF80A00ADF80C00B2
:10405000ADF810000C20ADF80E0001A94B48FDF79B
:1040600052F8FFF7B6FF012240F225514748FDF70D
:10407000E2F801214548FDF7D2F840214348FDF719
:10408000B6F906B010BD70B504460D462946204667
:10409000FDF732F900BF80212046FDF79BF900288B
:1040A000F9D070BD2DE9F04107460D4616460024B3
:1040B00005E0295D3846FFF7E6FF601CC4B2B44254
:1040C000F7DB00BF40213846FDF784F90028F9D01E
:1040D000BDE8F08170B506460C46002500BF615D65
:1040E0003046FFF7D0FF6D1C605D0028F7D100BFA0
:1040F00040213046FDF76EF90028F9D070BD2DE95A
:10410000F04105460C46260AE7B231462846FDF73F
:10411000F3F800BF80212846FDF75CF90028F9D0AC
:104120003946284638E00000003801405800024077
:10413000F8120020590200201B5B313B33306D0028
:104140001B5B303B33316D001B5B313B33316D000A
:104150001B5B313B33326D001B5B313B33336D00F6
:104160001B5B313B33346D001B5B313B33356D00E2
:104170001B5B313B33366D001B5B313B33376D00CE
:1041800025730000F813002000080140004400409F
:10419000FC14002080841E00FDF7AEF800BF8021D3
:1041A0002846FDF717F90028F9D0BDE8F08170B571
:1041B00004460D46E1B20C48FDF79EF800BF802191
:1041C0000948FDF707F90028F9D0204670BD10B561
:1041D000044600BF20210448FDF7FCF80028F9D070
:1041E0000148FDF78DF810BD0044004070B504246F
:1041F00040F2712545F25550FCF7CAFB2046FCF70A
:10420000CAFB2846FCF7CAFBFCF7CBFBFCF7CEFB4E
:1042100070BD10B5FCF7C5FB10BD0000F0B503463E
:104220004FF47A7090FBF3F417480068B0FBF4F198
:10423000B1F1807F01D301201DE021F07F40401EBD
:104240004FF0E022506150170F22002807DA1507BF
:104250002F0E0E4D00F00F06361FAF5503E0150769
:104260002E0E0B4D2E5400BF00204FF0E022906127
:1042700007201061002008B100BFFEE7F0BD10B5B7
:10428000044801F03AF910BD0000002018ED00E0EC
:1042900000E400E0C11A002010B5044600BFEFA002
:1042A0000DF07AFE23461B22EE49EFA00DF074FEBE
:1042B000FBA00DF071FE00BF002010BD00B587B05F
:1042C00001210803FCF7F2FC01210420FCF7EEFCBD
:1042D0001020ADF8040003208DF8060010208DF8A2
:1042E000070001A9F048FCF705FA2020ADF804000A
:1042F00018208DF8070001A9EB48FCF7FBF94020D6
:10430000ADF8040001A9E848FCF7F4F98020ADF805
:10431000040001A9E448FCF7EDF91020E24910314E
:1043200008600020ADF808004FF48270ADF80A0074
:104330000020ADF80C000220ADF80E000120ADF811
:1043400010004002ADF812000020ADF81400ADF8E6
:1043500016000720ADF8180002A9D448FCF730FD7C
:104360000121D248FCF7D1FD07B000BD70B504466D
:104370004FF4805507E0281EA5F1010503D1FFF792
:104380008BFFC0B270BD0221C848FCF742FE002876
:10439000F1D02146C548FCF7E9FD4FF4805508E00F
:1043A000281EA5F1010504D10120FFF775FFC0B259
:1043B000E8E70121BD48FCF72CFE0028F0D0BB48FF
:1043C000FCF7D6FDC0B2DDE710B500241020B649D9
:1043D000143108600520FFF7C9FF00BFFF20FFF779
:1043E000C5FF0446FFF715FF04F001000028F5D1D2
:1043F0001020AD491031086010BD10B51020AA4939
:10440000143108600620FFF7B1FF1020A6491031D3
:10441000086010BD10B50446FFF7EFFFFFF7D4FFAB
:104420001020A149143108602020FFF79FFFC4F33A
:104430000740FFF79BFFC4F30720FFF797FFE0B2A9
:10444000FFF794FF1020984910310860FFF7BCFF78
:1044500010BD10B50446FFF7D0FFFFF7B5FF1020E1
:10446000914914310860D820FFF780FFC4F307405A
:10447000FFF77CFFC4F30720FFF778FFE0B2FFF7F8
:1044800075FF1020884910310860FFF79DFF10BDAF
:104490002DE9F04705460C462046E11704EB114193
:1044A0000914A4EB01472046E11704EB11414FEA40
:1044B00021490FB109F101092846E91705EB11411E
:1044C0000E14002706E04FEA06484046FFF7C1FFFA
:1044D000761C7F1C4F45F6D3BDE8F08710B5FFF77B
:1044E0008CFF1020704914310860C720FFF73EFF91
:1044F00010206D4910310860FFF766FF10BD70B5E0
:1045000005460C461646FFF778FF10206649143121
:1045100008600220FFF72AFFC4F30740FFF726FFD9
:10452000C4F30720FFF722FFE0B2FFF71FFFB6F545
:10453000807F0CDD4FF4807600BF48A00DF02CFD8D
:104540005BA00DF029FD56A00DF026FD00BF03E095
:104550002878FFF70BFF6D1C301EA6F101018EB20B
:10456000F6D11020504910310860FFF72DFF70BDC3
:104570002DE9F05F07460E4614464FF00008C1468D
:10458000C2460025AB4606F0FF0ACAF10000C5B2DC
:104590002046E11704EB1161C1F30728E11704EB92
:1045A00011610912A4EB012101F0FF09BAF1000F1A
:1045B00020D1B8F1000F05D1224631463846FFF729
:1045C0009EFFA6E009E04FF4807231463846FFF7BF
:1045D00096FF06F5807607F58077B8F10000A8F120
:1045E000010101F0FF08EED14A4631463846FFF797
:1045F00086FF8EE0B8F1000F18D1A94510DDA9EBB8
:10460000050000F0FF0B2A4631463846FFF777FFDA
:104610002E442F445A4631463846FFF770FF78E063
:10462000224631463846FFF76AFF72E0601B84B2CB
:104630002046E11704EB1161C1F30728E11704EBF1
:1046400011610912A4EB012101F0FF092A4631464C
:104650003846FFF754FF2E442F444BE01B5B313BA1
:1046600033316D003A2A0108232323204552524F4B
:104670005220232323202573282564293A205350D0
:10468000492074696D65206F757421206572726FA1
:1046900072436F6465203D2025640D0A0000000010
:1046A0001B5B313B33326D0000080140003001409C
:1046B000232323204552524F52202323233A2053B1
:1046C00050495F464C4153485F5061676557726976
:1046D000746520746F6F206C61726765210D0A002C
:1046E0004FF4807231463846FFF709FF06F58076B1
:1046F00007F58077B8F10000A8F1010101F0FF088B
:10470000EED1B9F1000F04D04A4631463846FFF7E2
:10471000F6FEBDE8F09F70B505460C461646102023
:104720003B4908600320FFF721FEC4F30740FFF771
:104730001DFEC4F30720FFF719FEE0B2FFF716FED7
:1047400004E0FF20FFF712FE28706D1C301EA6F15A
:1047500001018EB2F5D110202D49091F086070BDEE
:104760002DE9F041002400250026002710202849CB
:1047700008609F20FFF7FAFDFF20FFF7F7FD0546D1
:10478000FF20FFF7F3FD0646FF20FFF7EFFD07468A
:1047900010201F49091F0860280440EA062040EA4B
:1047A00007042046BDE8F08110B500241020184908
:1047B0000860AB20FFF7DAFDFF20FFF7D7FDFF20F1
:1047C000FFF7D4FDFF20FFF7D1FDFF20FFF7CEFD5F
:1047D000044610200E49091F0860204610BD10B580
:1047E00010200B490860B920FFF7C0FD10200849D0
:1047F000091F086010BD10B5102005490860AB20E6
:10480000FFF7B4FD10200249091F086010BD000029
:104810001408014008B501210820FCF747FA4FF4BD
:104820008070ADF8000004208DF8030069461D4833
:10483000FBF760FF08BD10B54FF480711948FBF716
:10484000ECFF10BD08B501210820FCF72FFA4FF44A
:104850000070ADF8000004208DF80300694611488F
:10486000FBF748FF08BD10B54FF400710D48FBF78A
:10487000D4FF10BD08B501210820FCF717FA4FF44A
:104880008060ADF8000004208DF8030069460548FB
:10489000FBF730FF08BD10B54FF480610148FBF70E
:1048A000BCFF10BD000C014008B501210820FCF739
:1048B000FDF90120ADF8000010208DF80300032061
:1048C0008DF8020069461648FBF714FF01211448D1
:1048D000FBF7BDFF0220ADF8000069461048FBF76A
:1048E00009FF02210E48FBF7B2FF08BD10B50446D0
:1048F00024B901210A48FBF7ACFF03E00121084875
:10490000FBF7A5FF10BD10B5044624B902210448E9
:10491000FBF79FFF03E002210148FBF798FF10BD62
:10492000000C014010B5044624B904210F48FBF7E0
:1049300090FF03E004210D48FBF789FF10BD08B587
:1049400001210820FCF7B2F90420ADF80000102086
:104950008DF8030003208DF8020069460348FBF739
:10496000C9FE0020FFF7DEFF08BD0000000C01407B
:1049700070B505460E4600240CE0F74800EB041025
:10498000406828B1F44901EB041148680DF004FBBC
:10499000601CC4B2062CF0D3012070BD70B5044673
:1049A0000D46EEA00DF0F8FAEEA00DF0F5FAEFA02E
:1049B0000DF0F2FAEEA00DF0EFFA012070BD70B527
:1049C00005460E462C46002E17DDB4B1641C207837
:1049D000312806D10120E8490870E8A00DF0DCFA82
:1049E0000BE02078302806D10020E3490870E6A0CB
:1049F0000DF0D2FA01E0002070BD0120FCE7E5A037
:104A00000DF0CAFAEAA00DF0C7FAEA480CF0FCFD76
:104A1000E7A00DF0C1FAE7480CF0F6FD00BFE6484C
:104A2000006800F4E060E5490843001DE2490860C1
:104A3000BFF34F8F00BF00BFFEE770B50446E048EC
:104A400090F8016504B970BD20460CF0CFFE85B228
:104A5000802D00DBF7E716B1701EC6B200E0092614
:104A6000D74901EBC6102A4621460CF0C6FE68B3B2
:104A7000D34991F80115D24A02EBC11080210CF004
:104A800082FECF4991F80115CD4A02EBC1102A46AA
:104A900021460CF05FFECA4890F800050A2806DAA5
:104AA000C74890F80005401CC54981F80005C44876
:104AB00090F80105401CC24981F80105084690F8AC
:104AC00001050A2802DB002081F801050020BC490D
:104AD00081F8020500BFB6E770B503460C46012019
:104AE000B74D95F8005505B970BD012B0FD1B44DE8
:104AF00095F80255B24E96F80065B54213DAB04DFE
:104B000095F802556D1CAE4E86F802550BE0AC4D83
:104B100095F80255012D06DDA94D95F802556D1E3B
:104B2000A74E86F80255A64D95F8022595F8011571
:104B300006E011B14D1EE9B200E00921551EEAB2AE
:104B4000002AF6D100209E4D05EBC115256000BF5F
:104B5000CAE770B5054645219A480CF014FE40F2AC
:104B6000035197480CF00FFE2846FFF746FA002441
:104B700010E0794800EB0410806848B1764901EBF9
:104B800004118868804718B921468FA00DF004FAF7
:104B9000601CC4B2062CECD392A00DF0FDF96FA0FE
:104BA0000DF0FAF96FA00DF0F7F971A00DF0F4F91E
:104BB0006EA00DF0F1F900BF042009282AD2DFE829
:104BC00000F005090D1115191D21250086A00DF015
:104BD000E3F91FE086A00DF0DFF91BE086A00DF0E1
:104BE000DBF917E05FA00DF0D7F913E084A00DF01A
:104BF000D3F90FE084A00DF0CFF90BE084A00DF005
:104C0000CBF907E084A00DF0C7F903E084A00DF014
:104C1000C3F900BF00BF84A00DF0BEF951A00DF094
:104C2000BBF900BF89A00DF0B7F98AA00DF0B4F967
:104C300091A00DF0B1F999A00DF0AEF9A0A00DF082
:104C4000ABF900BF042009282AD2DFE800F00509EB
:104C50000D1115191D21250063A00DF09DF91FE010
:104C600063A00DF099F91BE063A00DF095F917E032
:104C70003CA00DF091F913E061A00DF08DF90FE06B
:104C800061A00DF089F90BE061A00DF085F907E056
:104C900061A00DF081F903E061A00DF07DF900BF86
:104CA00000BF61A00DF078F92EA00DF075F900BFDE
:104CB00070BD2DE9F84F0646834890F880404FF0CC
:104CC000000A8AE1804890F88000802842DA7E4815
:104CD00090F880007C4908444123321DB11C0090AB
:104CE000304600F0A5FA012822D1774890F88000DC
:104CF0007549085C082813D1084690F88000002800
:104D00000DDD012171A00DF047F972A00DF044F9FD
:104D10006D4890F88000401E6B4981F880005AE190
:104D2000694890F88000401C674981F8800052E192
:104D300000254FF0FF0900200090634890F88000A4
:104D4000022808DD64A160480CF028FD08B10125A7
:104D5000D8E0C3E040E11BE1E22A01081B5B313BE4
:104D600034306D001B5B313B33326D001B5B480000
:104D70001B5B324A00000000030200206563686F7D
:104D8000206F6E0D0A0000006563686F206F666615
:104D90000D0A00000D0A5B454E445D3A20537973BD
:104DA00074656D205265626F6F74696E67000000F4
:104DB0002E000000FFFF0F000CED00E00000FA05E0
:104DC0003D150020F81400200D0A2D3E2046554EBA
:104DD0005B25645D20494E49542057524F4E470D84
:104DE0000A000000200D0A001B5B313B33306D00D0
:104DF0001B5B303B33316D001B5B313B33316D004E
:104E00001B5B313B33336D001B5B313B33346D0037
:104E10001B5B313B33356D001B5B313B33366D0023
:104E20001B5B313B33376D002D2D2D2D2D2D2D2D61
:104E30002D2D2D2D2D2D2D2D2D2D2D2D2D2D2D2DA2
:104E40002D2D2D2D2D2D2D0D0A0D0A001B5B376DDF
:104E50000000000020202020434C4920766572731A
:104E6000696F6E3A2056302E3620202020202020D8
:104E70002020200D0A0D0A0020202020636F646589
:104E8000723A2043617420202020202020202020FE
:104E9000202020202020200D0A0D0A002020202084
:104EA000456D61696C3A20383433353533343933E4
:104EB0004071712E636F6D202020200D0A0D0A00B5
:104EC0001B5B32376D000000401A00201B5B25641D
:104ED000440000001B5B4B001B5B41008FA190480E
:104EE0000CF05CFC08B102250CE08EA18C480CF0A3
:104EF00055FC08B1032505E08BA189480CF04EFC58
:104F000000B10425002D57D0012D10D1844890F810
:104F10008010AFF248000DF03FF8AFF248000DF0FE
:104F20003BF869460120FFF7D7FD814615E0022DC9
:104F300010D17B4890F88010AFF270000DF02CF883
:104F4000AFF270000DF028F869460020FFF7C4FDAD
:104F5000814602E0032D00D000BFB9F1000F18D147
:104F600000980CF043FC83465A466D4800990CF0BB
:104F7000F1FB00980CF03AFC694981F880000020B0
:104F800091F88010664A5054114668A00DF004F85C
:104F900012E0B9F1010F00D075B1614890F88010AE
:104FA000AFF2D8000CF0F8FFAFF2D8000CF0F4FF2D
:104FB00081215B480CF0E7FB65B906E05848015DCC
:104FC0005B48FCF799F9601CC4B2554890F8800022
:104FD000A042F3DC02E000E000E073E600BF5048CE
:104FE00090F8800001280BD14D4890F88000401EB9
:104FF0004B49085C0D2803D1002081F8800079E03E
:10500000474890F88000012874DD454890F88000FA
:10501000401E4349085C0D286CD10021404890F89F
:105020008000401E3E4A1154002457E0414901EBE4
:10503000041108680CF0DAFB05463E4800EB04104A
:1050400001682A4636480CF0EEFB002844D14FF0A8
:10505000010A384901EB041108680CF0C7FB30491C
:1050600091F88010081AC7B2324901EB04110868A0
:105070000CF0BCFB2A4900EB01082E4800EB0410A1
:10508000C06830B32B4800EB0410C2683946404674
:105090009047A0B128A00CF07FFF2148FFF7CDFC7E
:1050A00028480078012817D100201D4991F8801068
:1050B0001B4A5054114624A00CF06EFF0CE026A0B1
:1050C0000CF06AFF1B4901EB041148680CF064FF07
:1050D00002E026A00CF060FF601CC4B2062CA5D331
:1050E000BAF1000F02D126A00CF056FF00200C49A7
:1050F00081F880000A4890F88000802803DB0020B7
:10510000074981F88000BDE8F88F704710B5234843
:10511000FFF7CFFDFFF7F9FF10BD00001B5B42005A
:10512000401A00201B5B43001B5B440025730000FA
:1051300000440040E22A01080D0A2D3E204F4B0D8D
:105140000A000000030200205B6563686F5D3A207F
:1051500025730D0A000000000D0A2D3E205041521B
:10516000412E204552520D0A000000000D0A2D3E2E
:105170002046554E432E204552520D0A0000000095
:105180000D0A2D3E20434D44204552522C2074726E
:10519000793A2068656C700D0A0D0A00F814002039
:1051A00030B504460D46002103E000205054481C51
:1051B00081B29942F9DB002028802080012030BD97
:1051C00030B504460888401C90FBF3F503FB15003E
:1051D0002588A84201D1012030BD0020FCE730B570
:1051E000044620880D88A84201D1012030BD00204E
:1051F000FCE72DE9F04107460C4615461E46DDF852
:10520000188033462A4621463846FFF7D9FF10B1A9
:105210000020BDE8F08198F80000218868542088BB
:10522000401C90FBF6F106FB110020800120F0E706
:105230002DE9F04104460F4615461E46DDF818805C
:1052400033462A4639462046FFF7C9FF10B10020F1
:10525000BDE8F0812088285C88F800002088401C88
:1052600090FBF6F106FB110020800120F0E7000022
:105270007047704710B50446207800F0010028B14F
:10528000207820F0010020700AF06EFE10BD10B5ED
:105290000446607800F0010028B1607820F0010039
:1052A0006070FFF7E6FF10BD0A2190FBF1F1FC4AA8
:1052B000127802EB420303EBC202FA4B1A44A2F843
:1052C00009107047F648007800EB400101EBC00080
:1052D000F4490844B0F8090070472DE9F04105464B
:1052E0000E461746002464E004EB440000EBC400C3
:1052F000285C00F00100002859D104EB440000EBC9
:10530000C400E8490844C0F805600A2097FBF0F0A3
:1053100004EB440101EBC401E24A1144A1F801008D
:1053200004EB440000EBC40011460844B0F801004F
:1053300004EB440101EBC4011144A1F8030004EBA8
:10534000440000EBC4001146085C20F00100401C42
:1053500004EB440101EBC401505404EB440000EBA6
:10536000C4001146085C20F00200801C04EB4401DC
:1053700001EBC401505404EB440000EBC40011469F
:10538000085C20F0040004EB440101EBC40150541C
:1053900004EB440000EBC4001146085C20F0080058
:1053A00004EB440101EBC4015054BDE8F081601CE2
:1053B000C4B20A2C98DB00BFBBA00CF0EDFDBCA072
:1053C0000CF0EAFD9922BC49BCA00CF0E5FDF3E726
:1053D00070B502460B46002000212DE001EB410490
:1053E00004EBC104AF4D2C44D4F80540944221D1C4
:1053F000012B0FD101EB410404EBC1042C5D24F01F
:105400000404241D01EB410505EBC105A54E7455AF
:1054100002200EE001EB410404EBC104A14D2C5D20
:1054200024F0040401EB410505EBC1059D4E7455C4
:10543000012003E04C1CE1B20A29CFDB00BF70BDA4
:1054400010B502460020002117E001EB410303EBF9
:10545000C103944C2344D3F8053093420BD101EBA4
:10546000410303EBC103E35CC3F380030BB10220F0
:1054700000E0012003E04B1CD9B20A29E5DB00BFA4
:1054800010BD0546FEF7B2FE36E000242FE004EB27
:10549000440000EBC400285CC0F3400028B304EBD8
:1054A000440000EBC400285C20F0020004EB44013F
:1054B00001EBC401685404EB440000EBC400285C19
:1054C00000F0010088B104EB440000EBC400284464
:1054D000D0F8050048B17248047004EB440101EBB8
:1054E000C4012944D1F805008047601CC4B20A2CCD
:1054F000CDDB00207B490880C7E770B505467A48B8
:105500000078012101EB50007749097860F34701E9
:10551000754801700520B0EB510F40DC71490888D7
:10552000411C704A1180C8280ADD00BF5EA00CF043
:1055300033FD6EA00CF030FD74A00CF02DFD01E0E9
:10554000FEF767FE6848007820F0FE0066490870A4
:105550000846007820F00100401C0870084640789A
:10556000012101EB50006049497860F347015E4832
:1055700041700A20B0EB510F0BDC5B48407820F003
:10558000FE00594948700846407820F00100401C50
:1055900048705548FFF76EFE5348FFF778FE002429
:1055A0006AE004EB440000EBC4002844B0F80900B2
:1055B00070B104EB440000EBC4002844B0F80900CB
:1055C000401E04EB440101EBC4012944A1F8090089
:1055D00004EB440000EBC400285CC0F38000E0BB97
:1055E00004EB440000EBC4002844B0F8010098B379
:1055F00004EB440000EBC400285CC0F3C00058BBBF
:1056000004EB440000EBC4002844B0F80300401E43
:1056100080B204EB440101EBC4012944A1F803006A
:10562000D0B904EB440000EBC4002844B0F80100FA
:1056300004EB440101EBC4012944A1F8030004EB8D
:10564000440000EBC400285C20F00200801C04EB46
:10565000440101EBC40168540CE0FFE704EB440093
:1056600000EBC400285C20F0020004EB440101EBD5
:10567000C4016854601CC4B20A2C92DB70BD10B522
:1056800004466E2120460CF07EF80A20FEF7C6FD87
:105690002048FFF75EFA00BF0620092869D23BE0E8
:1056A00004020020C11A00201B5B313B33316D0026
:1056B0001B5B376D00000000422B010823232320D1
:1056C00044494520232323202573282564293A2093
:1056D0006372656174207461736B20657272210D51
:1056E0000A000000060200200802002023232320D5
:1056F0004552524F52202323233A20776174636826
:1057000020646F67206572720D0A00001B5B313BDD
:1057100033326D0000B80B00DFE800F005090D1210
:10572000171B1F23270019A00CF036FC21E019A03D
:105730000CF032FC1DE0AFF290000CF02DFC18E0F4
:10574000AFF238000CF028FC13E014A00CF024FC9D
:105750000FE014A00CF020FC0BE014A00CF01CFCDB
:1057600007E014A00CF018FC03E014A00CF014FCEB
:1057700000BF00BF13A216A118A00CF00DFCAFF2E1
:1057800074000CF009FC00BF10BD00001B5B313B36
:1057900033306D001B5B303B33316D001B5B313BA5
:1057A00033336D001B5B313B33346D001B5B313B8E
:1057B00033356D001B5B313B33366D001B5B313B7A
:1057C00033376D0031363A34333A33390000000054
:1057D0004D61792033312032303139006275696C86
:1057E000643A2025732025730D0A0D0A000000007D
:1057F00070B504460E46154620222146FE480BF0A1
:10580000DFFF20223146FD480BF0DAFF2022294637
:10581000FB480BF0D5FFFB48FB490860FB480968D3
:10582000401AFB490860FB48FB490860FB480968CF
:10583000401AFB4908600120FA49087070BD10B594
:10584000F949EF4BED4A0868EB490CF0A5FBF7A0CE
:105850000CF0A2FB10BD70B505460E461446F44888
:105860000078D8B1F348007840B1EF494869214643
:105870000CF092FBEDA00CF08FFB07E0EA49886981
:1058800021460CF089FBE9A00CF086FBAC4201D26A
:105890002C4603E0A819A04200D2AC19E249C8681E
:1058A0000CF07AFBE1A00CF077FB08E02146E2A0C7
:1058B00022680CF071FBDDA00CF06EFB241DA81912
:1058C000A042F3D8E3A00CF067FBD8A00CF064FB77
:1058D00070BD2DE9F04303460D46DFF82CC3DCF81C
:1058E00000400020DFF828C3DCF800600027DFF864
:1058F0008CC39CF800C0BCF1000F2ED0DFF830C381
:105900009CF800C0BCF1000F27D1DFF874C3DCF8AD
:1059100018908446401C43F82C90DFF864C3DCF8F0
:1059200014C0ACF10401DFF8F0C2DCF800C061453E
:1059300013D3DFF8E4C2DCF800C0DFF8E482D8F863
:105940000080C4448C4508D3102806D2A84204D253
:105950008446401C43F82C100127DFF8D4C29CF881
:1059600000C0BCF1000F08D0A24201D2224604E0E0
:1059700004EB060C944500D2A2192CE0D2F800C02A
:10598000ACF1040101F0010CBCF1000F00D121E0E9
:10599000DFF884C2DCF800C061451AD3DFF878C2B2
:1059A000DCF800C0DFF87882D8F80080C4448C4569
:1059B0000FD310280DD2A8420BD2022805D127B14F
:1059C000D3F804C08C4500D104E08446401C43F861
:1059D0002C1000BF121D04EB060C9445CED8BDE878
:1059E000F08370B592B006460025402102A80BF066
:1059F000CAFE3246102102A8FFF76BFF05460024BD
:105A000010E002A951F8242004EBC4019D4BC818F2
:105A10009DA10CF0D1FA202104EBC4000830994A72
:105A20001154641CAC42ECD36DB1964805EBC50330
:105A30007D49009096A2C8696F490CF0ADFA7BA031
:105A40000CF0AAFA06E07849086A0CF0A5FA77A0EB
:105A50000CF0A2FA12B070BD10B50446714800787F
:105A600048B98D4A8DA18FA00CF096FA6FA00CF06A
:105A700093FA00BFFEE780A00CF08EFA6BA00CF04A
:105A80008BFAFFF7DCFE2246614801685E48006839
:105A9000FFF7E1FE2046FFF7A4FF10BD10B57848E0
:105AA00090F83800C0F3400030B15F49086B0CF04B
:105AB00073FA5EA00CF070FA7148806BC0F38070CE
:105AC00000287DD06E4890F8240000284ED06C4805
:105AD00090F8240000F0010030B15349486B0CF0FD
